:020000040800F2
:10000000380500202D010008511E0008B51A00080F
:1000100000000000000000000000000000000000E0
:100020000000000000000000000000005B1E00084F
:100030000000000000000000591E00085D1E0008BE
:100040003F0100083F0100083F0100083F01000890
:100050003F0100083F0100083F0100083F01000880
:100060003F0100083F0100083F0100083F01000870
:100070003F0100083F0100083F0100083F01000860
:100080003F010008B91E0008000000003F01000801
:100090003F0100083F0100083F0100083F01000840
:1000A0003F0100083F0100083F0100083F01000830
:1000B0003F010008000000003F0100080448854699
:1000C00000F098FA004800471D2D0008C046C046C1
:1000D0003805002000BF704730B50446124DA969AD
:1000E000302565436B1C303B994208D3CA1A00BFC8
:1000F0000D4DA86988420ED89042F9D80BE00A4D00
:100100006D696D186D1CEA1A00BF074DA869884219
:10011000FBD99042F9D830BD10B50446002C02D06E
:10012000204600F029FE10BD00E000E004488047B2
:1001300004480047FEE7FEE7FEE7FEE7FEE7FEE7CE
:10014000B71E0008BD00000830B50B460146002070
:100150002022012409E00D46D5409D4205D31D46CD
:100160009540491B2546954040191546521E002DC5
:10017000F1DC30BD70B500242546002801DA0124E9
:100180004042002901DA01254942FFF7DDFFAC4278
:1001900000D04042002C00D0494270BDF0B51FB4E1
:1001A0000646002082B005464024019100901BE0E5
:1001B000019922460F46304600F020F8049A059B2C
:1001C000801A994110D310461946224600F039F89A
:1001D000361A8F410197224601200021009F00F02E
:1001E00030F838184D4100902046641E0028DFDCAE
:1001F000019B00982946324607B0F0BD10B5202A71
:1002000004DB0846203AD040002110BD0B46D34005
:10021000D0402024A21A91400843194610BDD2B202
:1002200001E00270401C491EFBD270470022F6E735
:1002300010B513460A4604461946FFF7F0FF20465C
:1002400010BD10B5202A04DB0146203A9140002061
:1002500010BD914020239C1A0346E340194390406F
:1002600010BD0000F0B507460846584087B0C00FE3
:10027000049048000E46590040084908BC1A8841BD
:1002800005D2384631461E4617460B4602465800F0
:10029000400810434DD0300D039040055900400DEB
:1002A000490D0590401A0290402873DA1803012185
:1002B000000B09050843019004980092002806D01D
:1002C0001146019A49420020904100910190029804
:1002D00040210A1A01990098FFF7B3FF05460C4622
:1002E0006B4607CB00F098F9C0197141039A0E0DC7
:1002F0000023D71756401A467A40164344D0049A32
:10030000002A2DD0029A012A039A15DC1205C01A80
:10031000914101263605001C7141D20F059ED2077E
:100320000093019202962A46234600F095F907B001
:10033000F0BD38463146FAE71605234A0F46B21893
:10034000C01AB74101210905001C4F4100187F4127
:10035000114618187941E20F10436D19644113E0FA
:10036000E2076D0815436408C2071443039A012687
:100370001205C01A91413605001C7141CE07400894
:1003800030434908C01851412A46234600F057F926
:10039000CDE7FFE7049801224000C117121A00239D
:1003A0008B4104983146C417381AA141EEE730B4A6
:1003B0000124E407634030BC54E730B40124E4076F
:1003C000614030BC4EE700000000E0FFF0B51FB414
:1003D00088B00B990998002448400999C00F49003A
:1003E00049080991C0070B990090490049080B91F1
:1003F00009990898A64608431CD00B990A98084307
:1004000018D0099801244000420D4800410D099878
:1004100024050003000B204309900B980003000BF8
:1004200020430B9050181C4940180022019014469C
:10043000104605E0002001460DB0F0BD032801DAAA
:10044000034600E003239C46C11A0AAE0AE05F009F
:1004500008ADED5B4F00F75B7D430027AA187C4198
:10046000491C5B1E6145F2DD410004AB5A52210478
:10047000120C0A43240C401C0828DFDB0198029070
:100480000099704601910090059B049A079906987F
:1004900000F0E2F8D0E700000DFCFFFFF0B50C46DD
:1004A0005C4085B0E40FE40703944C000026640828
:1004B00059009446490802460296224321D06246DA
:1004C0000A431ED06200570D4A000E032303550D48
:1004D000012402462C492405781B1B0B360B4018BF
:1004E00023432643614600901C46501AB44103D36F
:1004F0000098401C009002E0921800985B41002890
:1005000003DA0020014605B0F0BD002001210905F5
:100510000746864611E064461D46141BB54106D3C6
:100520006546521BB341744607430C43A646CD07AC
:1005300040084908284392185B4105460D43EAD11B
:100540001046184313D06046194650407140084386
:1005500006D06046101AB34106D20122002306E0FD
:1005600000220123DB0702E00122D243531000984E
:1005700074460105381C6141029C039D00196941C4
:1005800000F05DF8BFE70000FD0300004A0009032A
:100590000123090B1B0519430A4B10B5520D9A4252
:1005A00002DA0020014610BD064B34339A4203DCC8
:1005B0009A1AFFF723FE10BD034BD218FFF741FE36
:1005C00010BD0000FF030000CDFBFFFF10B50029A8
:1005D00004DB0124E40740428C412146002B04DB6C
:1005E0001C460123DB075242A341994200D19042AD
:1005F00010BD0000064C0125064E05E0E36807CC5F
:100600002B430C3C98471034B442F7D3FFF75AFD04
:10061000682E0008882E000810B5202A06DBCB17AC
:100620000846203A1041C1170B4306E00B46134120
:10063000D0402024A21A91400843194610BD10B59D
:10064000002B08DA0024401C614192185B411A43D8
:1006500001D14008400010BDF0B51FB482B005467E
:100660000C0003D0084601F099FD02E001F096FD70
:1006700020300246009021462846FFF7E2FD049B09
:10068000059A04460F4618431143084314D01846F0
:1006900010431BD0009840210A1A18460599FFF70D
:1006A000ADFD05460E46009A05990498FFF7C9FD71
:1006B000084305D0012004E02046394607B0F0BDCC
:1006C0000020C11705430E432C43374300990E9871
:1006D0006305401A7905E40A00220C43FD0A0A303A
:1006E00002D500200146E9E70105101969410C9C7B
:1006F0000D9D00196941FFF7A2FFDFE770B50446C1
:1007000000688168490720D58168102549070029BC
:1007100005DA8168890702D481682943816000F085
:10072000EBFB06460DE000F0E7FB801B022808D932
:10073000A06B2843A063E06B01210843E0630846F7
:1007400070BD206880684007EDD4002070BDF8B50A
:100750000446006881688907890F012928D101684A
:10076000C90702D1C168090422D581680522114058
:100770001025012601290FD18168022211438160D1
:1007800021680320086000F0B7FB07460CE000F08A
:10079000B3FBC01B022807D9A06B2843A063E06B02
:1007A0003043E0630120F8BD20688068C007EED1C7
:1007B0000020F8BDF8B5044600200090206881684C
:1007C0008907890F012905D10168C9072CD1C168A2
:1007D000090429D48168154A1026114001250029F1
:1007E00015D1816829438160124811490068FFF7DB
:1007F000ABFC00E0401E00900028FBD100F07CFB29
:1008000007460CE000F078FBC01B022807D9A06B5C
:100810003043A063E06B2843E0630120F8BD20680B
:100820000068C043C007EDD10020F8BD170000806C
:1008300040420F001800002010B5094800F04EFAA1
:100840000521074800F0EAF90028054803D000F028
:1008500073FA002010BD00F0F5F800B210BD0000E2
:100860001C0000207047F8B5054604462035287D59
:100870000026012808D00120287520688168890792
:10088000890F012908D101E00220F8BD0168C907DC
:1008900038D1C168090435D4A16BFF2201329143DC
:1008A00002221143A163C1688907890F0091C168C1
:1008B00089088900C16020688168920711438160BE
:1008C00000F01AFB07460EE000F016FBC01B0228E2
:1008D00009D9A06B0221884310210843A06300209E
:1008E00028750120F8BD206880680028ECDB2068AE
:1008F000C168009A1143C160A06B80088000401C51
:10090000A06304E0A06B20210843A063012600201F
:1009100028753046F8BD0000F8B50025044620349F
:100920000095227D012A3BD0012323750268966839
:10093000760776D43F4F4E68BE4254D0966A0F7801
:10094000BB401E4396620123C26A1B079A421FD016
:10095000012A1DD0022A1BD0032A19D0042A17D03D
:10096000052A15D0062A13D0072A11D002688B68F1
:1009700056697607760FB3420AD05369DB08DB006D
:100980005361006842690B7A5B075B0F1A4342614F
:100990000868102806D0112804D0122802D045E09B
:1009A0000220F8BD244B9A68102809D011280AD0DB
:1009B0000120000602439A600868102806D035E03E
:1009C0000120C005F6E701208005F3E71C481B491C
:1009D0000068FFF7B9FB0A21484300E0401E009081
:1009E0000028FBD122E0906A0E78B34098439062D1
:1009F0000868102803D0112801D0122816D10E4AF9
:100A00009168102807D0112808D0012000068143E2
:100A100091600BE005E00120C005F8E701208005AA
:100A2000F5E7816B202211438163012500202075A9
:100A30002846F8BD011000000027014040420F0089
:100A4000180000200068006C70470000F8B5002511
:100A50000446002805D0A06B26462036002802D088
:100A600007E00120F8BD0020E0633075204600F06B
:100A7000A9F8A06B1022C006002870DB20688168EE
:100A800049076CD4A16B1301994302231943A16355
:100A900081688907890F012905D10168C9070FD12C
:100AA000C16809040CD4C16818239943A368194389
:100AB000C160206801696368890089081943016180
:100AC0002068C1683D4B1940C160207E8103607E73
:100AD000C0030143A07E43031943A36A012B02D044
:100AE00001231B0300E000231943E3681943236932
:100AF000022B09D0002319433379E67E5B001943AA
:100B00000123012E02D00AE00423F4E7002827D0B5
:100B1000A06B20263043A063E06B1843E063E069DC
:100B20000646FF3EC23E02D0266A3043014320689B
:100B3000C6680E43C6600126E06A3607B04213D08D
:100B4000012811D002280FD003280DD004280BD083
:100B5000052809D0062807D0072805D010E028E08E
:100B6000012000040143DAE720684669F608F60030
:100B7000466120684669A78D7F077F0F3E43466127
:100B80002068C0680E4E3040884207D10020E063E4
:100B9000A06B80088000401CA06308E0A06B0221CD
:100BA00088431043A063E06B1843E06301252846A7
:100BB000F8BDA06B1043A063F8E700001902FEFF28
:100BC000E7FF3F8310B586B0044614216846FFF75F
:100BD0002DFB10492068884219D10F4882694115C0
:100BE0000A43826182690A400592426909020A4306
:100BF0004261406908400590012000900320019067
:100C00000020029009206946C00600F0C7F806B02F
:100C100010BD00000024014000100240F8B5044659
:100C20004069274620370D4608280BD02068C06849
:100C3000C00709D0A06B20210843A06300203875AD
:100C40000120F8BD082600E00C2600F055F90090C0
:100C500011E0681C0FD0002D05D000F04DF900996F
:100C6000401AA84207D9A06B04210843A0630020C2
:100C700038750320F8BD206800683042E9D0A06BC9
:100C8000012149020843A0632068C1680C220905BC
:100C9000890F00291AD1A17E002917D101680907FF
:100CA00014D5816801234907002908DB4168914375
:100CB0004160A06B190288431843A06306E0A06B53
:100CC00020210843A063E06B1843E063207E0028E6
:100CD00001D1206802600020F8BD000070B5044614
:100CE000216800208968490721D425462035297DBF
:100CF00001291CD001212975617E012904D02046DB
:100D0000FFF758FD002811D1A16B0A4A1140FF22BC
:100D100001321143A1630021E163297522681C217E
:100D2000116021688A6804231A438A6070BD02201A
:100D300070BD0000FEF1FFFF70B50546044620358A
:100D4000287D012807D001262E752046FFF7D6FC06
:100D5000002802D00CE0022070BD2046FFF7F7FC0F
:100D6000002805D1A16BFF22013291433143A163D9
:100D70000021297570BD000070B5044600F0BCF874
:100D80000546601C02D004480078241800F0B4F82E
:100D9000401BA042FAD370BD0C000020F8B5002221
:100DA00092E0012797403B407ED04C68012C05D053
:100DB000022C03D0112C01D0122C10D185685400C4
:100DC0000326A640B543CE68A6402E4386604468FD
:100DD0000D79BC43ED06ED0F954025434560C6688F
:100DE00055000324AC408F68A643AF403743A64666
:100DF000C7604C68022C01D0122C0ED1D408A4007C
:100E00002418276AA4465607F40E0F26A640B743B7
:100E10000E69A6403E436446266206687446A643B1
:100E20000C79A407A40FAC40344304604C68E40080
:100E300049D5284CA56901263543A561A4699508C3
:100E400034400094244CAD002F19BD689407240F42
:100E50000F26A640B5430926F606B04201D100266A
:100E60000FE01E4EB04201D101260AE01C4EB042F6
:100E700001D1022605E01B4EB04201D1032600E05D
:100E80000526A6402E43BE60174D2C684E689C4335
:100E9000F60300D51C432C606C684E689C43B60377
:100EA00000D51C436C6000E00DE0AC684E689C43CC
:100EB000F60200D51C43AC60EC684E689C43B60259
:100EC00000D51C43EC60521C0B681C46D44000D07B
:100ED00067E7F8BD00100240000001400004004830
:100EE00000080048000C004800040140002A01D01E
:100EF00081617047816270470148806870470000D7
:100F00000C000020024881680278891881607047CF
:100F10000C00002010B50648016810221143016042
:100F2000002000F007F800F027F8002010BD0000B6
:100F30000020024070B504460D4D7D202978C00088
:100F4000FFF702F901460B480068FFF7FDF800F0D3
:100F5000E7FA002809D1042C07D200222146401EBE
:100F600000F02AF800206C6070BD012070BD000008
:100F70000C0000201800002008B5084881690122F3
:100F800011438161816911400091C26901040A43E2
:100F9000C261C0690840009008BD00000010024016
:100FA000002805DBC106C90E012088400149086000
:100FB0007047000000E100E010B501F01FF910BD1E
:100FC00070470000F8B50D4604005AD03A48006852
:100FD000C007C00FA8420AD2374801684908490033
:100FE000294301600068C007C00FA84249D12068AA
:100FF000324E81070CD5400704D5706807210902DD
:10100000084370607068F0218843A16808437060ED
:101010002078C00725D0606801280ED031680228EA
:101020000ED0890700292CDA7168890889000143EC
:101030007160FFF761FF07460CE031688903F1E753
:101040008901EFE7FFF758FFC11B1D48814201D915
:101050000320F8BD70680C2108406168890088424F
:10106000F0D115480168C907C90FA9420BD9016819
:1010700049084900294301600068C007C00FA84221
:1010800001D00120F8BD2078400706D570680721FF
:1010900009028843E1680843706000F021F8716834
:1010A000084A0906090F515CC8400749086000203A
:1010B000FFF740FF0020F8BD002002400010024072
:1010C00088130000572E000818000020034801680C
:1010D0000122D20411430160704700000010024059
:1010E00010B514A00FC888B06C460FC415A00FC867
:1010F0000FC4184A53680C201946014016480429A9
:1011000016D0082914D19902090F6C46645CD16A83
:1011100004AA0907090F525CD90305D50023194613
:10112000FFF73CF8214601E020460C4901F04DF85C
:1011300008B010BD02030405060708090A0B0C0DD0
:101140000E0F10100102030405060708090A0B0C14
:101150000D0E0F100010024000127A0000093D0031
:1011600010B5044CA068000603D5FFF729FF8020C6
:10117000A07210BD00100240FEB5040076D02078A9
:10118000E44DC00753D068680007800F012807D0DE
:1011900068680007800F022809D16868C00306D577
:1011A0002868800343D560680028E7D03FE0606886
:1011B000012813D001218904002814D0052818D053
:1011C0002A68881082432A602868884328606068FB
:1011D000002820D0FFF790FE064618E0286801217D
:1011E00009040843F2E728680122120490432860AA
:1011F000EAE72868084328602968012000040143C1
:101200002960E4E7FFF778FE801B642875D828681A
:101210008003F7D50BE0FFF76FFE064604E0FFF70B
:101220006BFE801B6428F1D828688003F7D42078EF
:1012300001268007002843DA68680007800F07D07E
:1012400068680007800F022811D16868C0030ED4B7
:101250002868800702D5E068012807D12868F821AE
:1012600088432169C9000843286029E04DE1E0680E
:101270000028286815D030432860FFF73DFE074658
:1012800004E0FFF739FEC01B0228BFD8286880079A
:10129000F7D52968F82081432069C00001432960FF
:1012A0000EE0400840002860FFF726FE074604E0F5
:1012B000FFF722FEC01B0228A8D828688007F7D4B1
:1012C0002078000722D5E0690028686A0ED03043F4
:1012D0006862FFF711FE074604E0FFF70DFEC01B32
:1012E000022893D8686A8007F7D50FE040084000CD
:1012F0006862FFF701FE074605E09DE0FFF7FCFD91
:10130000C01B02288FD8686A8007F7D4207804278A
:101310004007002860DA00200190E869C00008D486
:10132000E969B8060143E961E969014001200091DA
:10133000019079480168C90511D4016882151143EB
:101340000160FFF7D9FD009005E0FFF7D5FD00999A
:10135000401A642870D870480068C005F5D5A068A8
:1013600001280AD0002801D0052810D0286A40089A
:1013700040002862286AB84301E0286A30432862A6
:10138000A068002812D0FFF7B7FD00900AE0286A95
:1013900038432862F1E7FFF7AFFD0099411A5F4833
:1013A000814249D8286A8007F5D50DE0FFF7A4FDF2
:1013B000009006E0FFF7A0FD0099411A57488142CE
:1013C0003AD8286A8007F5D40198002804D0E86943
:1013D000012109078843E8612078C00635D5606996
:1013E00001280CD0401D686B23D038436863686BBC
:1013F000400840006863FFF77FFD064622E0686B07
:1014000038436863686B30436863FFF775FD0646D1
:1014100004E0FFF771FD801B02285BD8686B800732
:10142000F7D5686BF8218843A169C9000843686350
:101430000BE0B8436863F4E74CE0FFF75DFD801B09
:10144000022847D8686B8007F7D4206A00285ED04E
:1014500069680907890F022942D001273F0602283F
:10146000286805D0B8432860FFF746FD044633E0FE
:10147000B8432860FFF740FD064604E0FFF73CFD57
:10148000801B022826D828688001F7D4E86AE16A20
:10149000000900010843E862616AA06A08436968BC
:1014A0003D2212049143084368602868384328604D
:1014B000FFF722FD044604E0FFF71EFD001B022893
:1014C00008D828688001F7D521E0FFF715FD001B3B
:1014D000022801D90320FEBD28688001F5D416E05A
:1014E0000128F8D06868E96A01221204636A0240A0
:1014F0009A420AD10907E26A090F914205D10F21E8
:1015000089040840A16A884201D00120FEBD002064
:10151000FEBD000000100240007000408813000073
:10152000094910B5401E884201D9012010BD074C61
:1015300060610321081F00F061FE0020A061072008
:101540002061002010BD0000FFFFFF0000E000E070
:101550007047704730B502462032137F012B26D0EA
:10156000012313770325CB682D02AB438D6800243C
:101570002B430125AD02AB434D6800682B43012589
:10158000ED02AB430D682B4301252D03AB430D69E1
:101590002B4301256D03AB434D69C9692B430125DD
:1015A000AD03AB430B4343641477002030BD0220EE
:1015B00030BD0000F0B502462032137F012B21D050
:1015C000012616770223537703685D689C687027AD
:1015D000BD430F682F435F6000680B4B984208D0F3
:1015E000B307984205D0094B984202D0084B984265
:1015F00004D1802349689C432143816056770020B1
:101600001077F0BD0220F0BD002C01400004004026
:101610000040014070B5040005D025462035687FA4
:10162000002802D006E0012070BD00202877204667
:1016300000F014F802206877211D206800F048FCB3
:1016400001224034A271AA77EA7722706270A270F8
:10165000E270227162716A77002070BD08B500687F
:10166000134A144990420FD1CA6910200243CA613B
:10167000C96900220140009111461120FFF79CFC2E
:101680001120FFF78DFC08BD0B4A904203D18A69F7
:101690000120400405E0094A9042F4D18A69012002
:1016A000800402438A6189690140009108BD0000FD
:1016B000001000400010024000440140004801407A
:1016C000014620314A7F012A01D0012070470222C1
:1016D0004A770168CB6801221343CB6000680B494D
:1016E000884208D09107884205D00949884202D033
:1016F0000849884204D181684907490F062902D068
:10170000016811430160002070470000002C014077
:101710000004004000400140704770B50446006876
:1017200001690025C9438907002915DBC168C94340
:10173000890711D4E91E01610120207720688069A2
:101740008007204602D0FFF7E7FF04E000F0CAF868
:10175000204600F051F9257720680169C9434907FF
:1017600017D4C168C943490713D40421C94301618F
:1017700002202077206880698005800F204602D0F3
:10178000FFF7CAFF04E000F0ADF8204600F034F99E
:10179000257720680169C943090716D4C168C94380
:1017A000090712D40821C943016104202077206869
:1017B000C0698007204602D0FFF7AEFF04E000F0CA
:1017C00091F8204600F018F9257720680169C9438F
:1017D000C90617D4C168C943C90613D41021C94327
:1017E0000161082020772068C0698005800F2046AD
:1017F00002D0FFF791FF04E000F074F8204600F0FB
:10180000FBF8257720680169C943C90708D1C16879
:10181000C943C90704D1891E0161204600F048F977
:1018200020680169C943090609D4C168C94309068A
:1018300005D48021C94301612046FFF789FE206855
:101840000169C943490609D4C168C943490605D499
:101850004021C9430161204600F02BF9206801694D
:10186000C943890609D4C168C943890605D4202122
:10187000C94301612046FFF76CFE70BD70B586B0AC
:10188000044614216846FEF7D1FC124E216801255A
:101890000024114AAD0402231048B14207D1516916
:1018A00029435161516929400591911509E00C4E78
:1018B000B1420DD1516929435161516929400591C6
:1018C00071156E461AC6694603940493FFF766FACB
:1018D00006B070BD00440140001002400004004802
:1018E000004801407047F8B5064604462036307F70
:1018F0000D4601280BD0012008273077002A08D098
:10190000042A16D0082A2AD00C2A4DD137E002200A
:10191000F8BD206800F034FB20688169394381619B
:1019200020688169042291438161206881692A6964
:1019300012E0206800F068FB206881690122D20271
:101940001143816120688269012189028A43826191
:10195000206881692A6912021143816124E02068AC
:1019600000F092FB2068C1693943C1612068C169F8
:1019700004229143C1612068C1692A6912E020688C
:1019800000F0C4FB2068C1690122D2021143C16189
:101990002068C269012189028A43C2612068C16945
:1019A0002A6912021143C16100203077F8BD70B579
:1019B000040005D025462035687F002802D006E0C7
:1019C000012070BD00202877204600F014F8022086
:1019D0006877211D206800F07BFA01224034A27153
:1019E000AA77EA7722706270A270E2702271627147
:1019F0006A77002070BD70477047000030B502461E
:101A0000044620324030002908D0042908D0082993
:101A100008D04378012B07D0012030BD937FF9E730
:101A2000D37FF7E70378F5E70223002930D00429B4
:101A300030D0082930D043700122206800F092FA9B
:101A4000164A2168164B914207D0994205D0154895
:101A5000814202D01448814204D1486C0125ED0333
:101A60002843486420680124904207D0A107884297
:101A700004D00E49884201D0984204D181684907B8
:101A8000490F062902D0016821430160002030BDC2
:101A90009377D1E7D377CFE70370CDE7002C0140F0
:101AA0000040014000440140004801400004004063
:101AB00070477047FEE70000F8B5144CE078002846
:101AC0001BD00020E070A0881921401C80B2A080AB
:101AD0000546FEF739FB00290FD1607820700C48CD
:101AE0000C4EF027854209D2FA212846FEF72CFB3E
:101AF000002902D1706978407061F8BD01216170E0
:101B000072693A437261A0802170F8BD0200002022
:101B1000B80B0000000800483EB5002416491748DD
:101B200000940194029412C0046004224460C260D4
:101B300001218160047444748474C474FF22C2322D
:101B40008461426102461832147101620838FEF75E
:101B50007DFF002801D0FEF785FE012000030190E3
:101B600000040290009469460448FEF7D5FE002860
:101B700001D0FEF777FE3EBD002401401C0000208E
:101B8000F0B587B014216846FEF750FB4348426920
:101B90000121C9040A43426142690A40059242692F
:101BA000C9000A43426142690A40059242694911EB
:101BB0000A43426142690A400592426949000A4368
:101BC00042614069364E0840FF210590002209021B
:101BD0003046FFF78BF90122F0213046FFF786F9F6
:101BE000002203212F48FFF781F901220920D103A8
:101BF000C006FFF77BF92C480024012500900294D1
:101C00006946019503943046FFF7C8F80F2000900D
:101C10000194694602943046FFF7C0F8E020009036
:101C2000022703260920029469460197039604942B
:101C3000C006FFF7B3F8029469461A48009601956A
:101C40000394FFF7ABF8280200900920019469463D
:101C50000294C006FFF7A2F80F204002009009206E
:101C600069460197039604950294C006FFF796F81B
:101C7000C0200090122001AA61C269460B48FFF7FC
:101C80008DF8E803009009200294694601950394B9
:101C9000C006FFF783F807B0F0BD00000010024057
:101CA0000008004800040048F0FF0000001400484D
:101CB00010B590B01C2108A8FEF7B8FA202168469C
:101CC000FEF7B4FA21482049016000240B2184600A
:101CD0004160046163214461C16080218161FFF73B
:101CE00099FC002801D0FEF7BDFD1848FFF75FFE04
:101CF000002801D0FEF7B6FD6020089031200E9438
:101D000009900A940B940C940D94002208A90F4892
:101D1000FFF7E9FD002801D0FEF7A4FD01200094A3
:101D20004003029405900194039404946946079437
:101D30000648FFF70FFC002801D0FEF793FD03488B
:101D4000FFF79CFD10B010BD00440140A40000202E
:101D500030B58FB01C2108A8FEF768FA202168462C
:101D6000FEF764FA244C2348206000250420A56077
:101D70006060256121486561E0608020A0612046A7
:101D8000FFF748FC002801D0FEF76CFD1A48FFF76A
:101D90000EFE002801D0FEF765FD6020089018486F
:101DA0000E9509900A950B950C950D95002208A9A2
:101DB0001148FFF798FD002801D0FEF753FD206879
:101DC00081690822914381610095900202950590F6
:101DD000019503950495694607950748FFF7BAFBF7
:101DE000002801D0FEF73EFD0348FFF747FD0FB086
:101DF00030BD000000480140EC000020FFE0000082
:101E00007F7000001CB500240F4800940D49019418
:101E100001600E49846041600921C16080218161B7
:101E2000FFF7F8FB002801D0FEF71CFD009469467F
:101E300005480194FFF7BEFB002801D0FEF712FD14
:101E40001CBD0000001000405C000020BF1200001C
:101E500010B5FFF785F910BD7047704710B5FFF753
:101E600051F810BD30B591B030216846FEF7DEF96B
:101E7000002411200F940090012001900590102063
:101E800006900E940003099000010D9402250A901B
:101E90000C9408950B946846FFF76EF907200C9098
:101EA0000E9401210D950F940CA8FFF78BF8FFF706
:101EB0000DF911B030BD704710B50348FFF72DFC88
:101EC00002490120087010BD5C00002005000020C0
:101ED000F0B502681D4B0124A4071D4D984203D0A4
:101EE000A04201D0A84203D17026B2434E683243CB
:101EF000184E194F98420DD0A0420BD0A84209D0DD
:101F0000164CA04206D0B04204D0B84202D0144CC5
:101F1000A04204D103242402A243CC68224380249B
:101F2000A2434C69224302608A68C2620A688262E4
:101F3000984206D0B04204D0B84202D0084A90423B
:101F400001D10969016301214161F0BD002C01400B
:101F500000040040004001400044014000200040D7
:101F60000048014010B5C906C90E0123046A8B4020
:101F70009C430462036A8A401343036210BD00005D
:101F8000F0B5026A520852000262056A436882692B
:101F90007024A24392080C689200144302229543D5
:101FA0008A68154E2A43154FB04207D0B84205D073
:101FB000134DA84202D0134DA84206D10825AA43CA
:101FC000CD681543042295432A46B04207D0B84253
:101FD00005D00B4DA84202D00A4DA84206D10325D8
:101FE0002D02AB434D691D438B692B4343608461D4
:101FF000496841630262F0BD002C0140004001408D
:102000000044014000480140F0B5026A10239A43A1
:102010000262056A4368826973242402A2430C6841
:10202000154E24021443202295438A6812012A4344
:10203000B04206D18025AA43CD6840272D012A430E
:10204000BA43B04208D00D4DA84205D00C4DA8426D
:1020500002D00C4DA84208D10325AD02AB434D6917
:10206000AD001D438B699B002B434360846149682D
:1020700081630262F0BD0000002C0140004001407D
:102080000044014000480140F0B5026AFF230133DB
:102090009A430262046A4368C2697025AA4392089F
:1020A0000D68920015430122520294438A68134E30
:1020B00012022243B04207D11446CA68C714BC4377
:1020C000120222430415A243B04208D00C4CA04295
:1020D00005D00C4CA04202D00B4CA04208D10324E6
:1020E0002403A3434C6924011C438B691B01234334
:1020F0004360C5614968C1630262F0BD002C0140C4
:1021000000400140004401400048014070B5026AAF
:1021100001231B039A430262046A4268C369732560
:102120002D02AB430D682D021D4301235B039C432D
:102130008B681E030C4B2643984208D00B4B9842E9
:1021400005D00B4B984202D00A4B984206D101248D
:102150001346A4034A69A34392011A434260C5612E
:1021600049680164066270BD002C014000400140D6
:10217000004401400048014037B514460846064B6C
:102180006A46214600F026F904466946002000F020
:10219000BFFC20463EBD0000112B00082021020C90
:1021A00001D010211046020A01D010460839020958
:1021B00001D01046091F820801D01046891E42082E
:1021C00001D0881E7047081A7047F8B5040C8BB20E
:1021D000264682B25E430D0C1046370C5843360437
:1021E00080190021794116466E43370C3604801958
:1021F000794126466E438919F8BD00008307FF2206
:10220000DB0E9A408907090E9940002808DB8308F5
:1022100009489B001818036893430B4303607047F9
:102220000007000F0838830804489B001818C3698A
:1022300093430B43C361704700E400E000ED00E00E
:1022400002E008C8121F08C1002AFAD1704770477F
:10225000002001E001C1121F002AFBD170470000DD
:10226000F0B51FB486B00998089A030D0021024307
:1022700014D05148514A1818504305141198012898
:1022800010981AD0281A401C00264D4F4D49009630
:1022900001910490002812DA444211E011980124BF
:1022A00049A3012801D11098C1430698119A84606E
:1022B0000360C26041600BB0F0BD4042E4E70446F9
:1022C000210500203F4A001C51410391029012E079
:1022D000E00707D032463B4601990098FEF776F8B2
:1022E0000191009032463B4610461946FEF76EF8C3
:1022F00006460F466410002CEAD10498039B002880
:10230000029A0999089806DAFEF760F8019B009A8C
:10231000FEF75CF805E0FEF7C1F8019B009AFEF7B6
:10232000BDF804460E460022284BFEF74FF903D8AD
:102330000020C043014607E00022254B20463146DD
:10234000FDF790FFFEF722F9102409E0002C0ADBCC
:102350000A220023FDF722FF079B30321A55641E24
:1023600002460A43F2D11122641C079B121B1C195E
:10237000119B012B03D0012308430ED10AE008432F
:1023800004D0112010900020119077E71098151AB2
:102390006D1E0BE01098824202DD00236D1C03E0ED
:1023A000824201DA00236D1E002BEED006981199AF
:1023B0008260C16030C07EE701FCFFFF104D00006D
:1023C000000014400000F03F300000000000F04327
:1023D0000000E03FFFB597B0064600251BE2252828
:1023E00076D100242746F749049400E00443761C84
:1023F00032780120203A90400842F7D130782A28DC
:102400000ED00222307801463039092916D80499B5
:102410000A235943303940181443761C0490F1E7DD
:10242000189802C804911890002904DA012040038A
:1024300004434842049002200443761C30782E283E
:1024400014D1042004437078761C2A2809D11898E6
:10245000761C80C8189009E00A214F43303FC71905
:10246000761C3078014630390929F5D930786C2846
:1024700010D006DC4C281AD068280ED06A2817D154
:1024800004E0742813D07A2812D110E0012040050E
:1024900004430CE00121090501E0032109050C4377
:1024A0007178814203D1012000052418761C761C26
:1024B000307866280BD013DC58287DD009DC002842
:1024C0007BD04528F6D04628F4D047281AD1A9E178
:1024D00018E0632835D0642870D0652812D1A1E1B6
:1024E00070286CD008DC6728F1D069287DD06E2870
:1024F0000DD06F2806D1BCE073282ED0752873D07C
:10250000782859D01A9A199990476D1C82E1600277
:10251000400F022809D003280DD00428189801681C
:102520000DD00D60001D189074E11898EA1701682D
:102530000D604A60F6E7189801680D80F2E70D70AB
:10254000F0E718986A4601781172001D1890002073
:10255000507202A80090012005E0189802C8189057
:1025600000200091C04361070ED5002101E00199D0
:10257000491C0191B94213DA8142F8DB019A0099B2
:10258000895C0029F3D10BE0002101E00199491C8D
:1025900001918142FADB019A0099895C0029F5D109
:1025A000019904981A9B471A21463846199A00F057
:1025B00099FA4019019903E051E030E115E050E04B
:1025C000451807E0009800990078491C00911A9A74
:1025D000199990470198401E0190401CF2D1214664
:1025E00038461A9B199A12E137E00A200021009020
:1025F00001916002410F022907D0189A01CA18926E
:10260000C2179446032908D00AE01898C01DC108D3
:10261000C90005C91891944607E000B2C217944654
:10262000042902D140B2C1178C460022614694456C
:1026300006DA0A460021404291418C462D2102E0F3
:10264000210504D52B216A461173012103E0E1071E
:1026500001D02021F7E7029156E00A200AE010207D
:1026600008E0102000900021042004430191082775
:1026700003E008200021019100906002410F02292F
:1026800007D0189A01CA189200229446032908D04C
:1026900008E01898C01DC108C90005C918919446E2
:1026A00003E080B2042900D1C0B2002102912107C9
:1026B0002AD531780D91702906D0009A1021019BFE
:1026C0004A401A4305D00EE040216A4611730121A9
:1026D00008E06146014306D030216A4611730D9926
:1026E000517302210291009A0821019B4A401A432A
:1026F0000AD16146014301D1610705D530216A46FF
:10270000117301217F1E02913178582904D02EA126
:102710000E910DA90D910DE030A1F9E76146019BE5
:10272000009AFDF73BFD0E9B8C469B5C0D9A521E5A
:102730000D92137061460143F0D10D9805A9081A56
:1027400020300190600703D501200004844300E09D
:1027500001270198874201DD381A00E00020019925
:1027600000904118029809180498401A0490E00358
:1027700006D421461A9B199A049800F0B3F945191A
:10278000002706E003A81A9AC05D199990476D1CAE
:102790007F1C02988742F5DBE0030CD521461A9B8B
:1027A000199A049800F09EF9451904E01A9A30200D
:1027B000199990476D1C0099481E00900029F5DC7E
:1027C0001FE000000928010030313233343536373C
:1027D000383961626364656600000000303132336D
:1027E000343536373839414243444546000000000D
:1027F0000D980D990078491C0D911A9A19999047D6
:102800006D1C0199481E01900029F1DC4DE100F09A
:1028100059F94519761C3078002800D0DFE52846A4
:102820001BB0F0BD600700D406271898C01DC10872
:10283000C90048680A680831C30FDB0718911900FE
:1028400001D09CA108E0210501D59BA104E0E1078E
:1028500001D09AA100E09AA14300109130785B0862
:1028600065280CD006DC452809D046281DD047280D
:1028700041D141E0662818D067283CD13CE00021D6
:10288000112F01DB112000E0781C0191009008A9B4
:1028900011A8FFF7E5FC139905910021119A1592F3
:1028A0007F1C12980197009150E00120C00703900F
:1028B0000120019008A9009711A8FFF7D1FC139AF5
:1028C000149905920022119B009212981593059A73
:1028D0000192002901D0104602E0791C40180190B5
:1028E000381A01D5019804E04042401E0090781C3F
:1028F0000190C01B029043E0012F00DA0127002164
:10290000112F01DD112000E038460191009008A947
:1029100011A8FFF7A5FC13990591119A00211298AF
:1029200015920091019721070CD40599B94201DB5A
:10293000019900E00191012904DD159A491E515CBD
:10294000302906D0B84201DA011D05DA01210291D1
:1029500015E00199491EEDE7002805DC00994118B2
:1029600000910199091A03E0019A411C914200DD8E
:1029700001910099401A401C02900120C007039069
:10298000200706D402990198814202DB0020C0434F
:10299000029000206946C87707AF012103980337EA
:1029A000C907884224D0022011902B20129003984E
:1029B00000280CDA404203902D20129007E00A21F3
:1029C0000398FDF7C1FB30317F1E039039701199D8
:1029D000481E11900029F2DC03980028EFD1791EDF
:1029E000129808703078202108404530BF1E38709A
:1029F00006A8C01BC01D039010980078002800D0C6
:102A00000120019941180298C01709180398091864
:102A10000498401A401E0490E00306D421461A9BF5
:102A2000199A049800F05EF845191098007800286B
:102A300003D01A9A199990476D1CE00324D52146BA
:102A40001A9B199A049800F04DF845191CE000985B
:102A5000002807DB00990598884203DD1598405C43
:102A6000199901E0199930201A9A904700986D1C25
:102A7000401C00900298401E0290002804D11A9A2F
:102A80002E20199990476D1C0199481E019000292C
:102A9000DDDC05E038781A9A7F1C199990476D1C87
:102AA0000399481E03900029F4DC21461A9B199AC9
:102AB0000498ACE62D0000002B0000002000000070
:102AC00000000000F8B5044600251E46174688049D
:102AD00004D405E039462020B0476D1C641EF9D5AA
:102AE0002846F8BDFFB50446002581B01E46C80340
:102AF00001D5302700E02027880404D505E03846BA
:102B00000399B0476D1C641EF9D5284605B0F0BD89
:102B10000A68531C0B601070704700000278FF2396
:102B200021335A43034BD21800D552424A800078D1
:102B300008707047C07B000010B504460C48407810
:102B4000002813D10BA000F045F90221012000F06C
:102B500089F80CA000F03EF90121084600F082F847
:102B600000F042F8102020721120207110BD0000EA
:102B70000200002054502041644C6364203C3230F9
:102B800032343E0041434C204544410010B50278A8
:102B900040780C46824213D0002A11D00F21914375
:102BA000104A0129907808D002290AD0042907D1B7
:102BB000002820780FD0401C11E00121484090707F
:102BC00010BD0028207801D0401E08E00A210A38F4
:102BD000FDF7D0FA03E00A210A30FDF7B5FA2070BC
:102BE00010BD00000200002001200249C0038861DE
:102BF0007047000000080048F8B5184D2868FF210C
:102C000009048843286001208003A8624010A8615D
:102C1000FDF760FA01263603AE61FDF75BFA104F4F
:102C20003878012802D128690005C40FAE62FDF78B
:102C300051FAAE61FDF74EFA3878002802D12869C2
:102C40000005C40FAE6228685521090408432860B6
:102C5000012C01D00020F8BD0120F8BD000800487B
:102C60000000002010B5054A515C0818401EC1B292
:102C700080200143002000F01DF810BD542E0008F4
:102C800010B5044602E000F005F8641C2078002826
:102C9000F9D110BD10B50A2806D00C2804D0014681
:102CA000012000F007F810BD02210120FFF7DAFF34
:102CB00010BD000070B50C460546FFF79DFF0028CB
:102CC000FBD1012189030848002D01D0816100E07A
:102CD0008162012149038162200900F007F8200781
:102CE000000F00F003F870BD0008004870B5094CF3
:102CF0006169094A89B211400002084360610220FB
:102D0000FDF7EAF901252D03A5610220FDF7E4F99D
:102D1000A56270BD00080048FFF0000086B0FEF715
:102D2000F9F8FFF79FF8FEF72BFFFFF76BF8FEF7B8
:102D3000BFFFFFF70DF8FEF7EFFE2148FEF7C0FCDE
:102D40002048FEF7BDFC2048FEF7BAFC00211D48D4
:102D5000FEF754FE00211C48FEF750FE1B48FDF70D
:102D600082FD00271A4D6E46022469468F815A2043
:102D70000874FEF7A1FE0020FDF75EFD694688811C
:102D8000B11D03A800F04EF81148801D00F032F884
:102D90000F4804A9801DFFF7F9FE694604A8FFF754
:102DA000BDFE684600F032F82878002803D00128DC
:102DB000DBD12C70D9E72C706846FFF7BDFED4E755
:102DC0005C000020A4000020EC0000201C0000207B
:102DD000020000200FB400B587B009AA6846089920
:102DE000FFF7CAF96846FFF74BFF07B008BC04B00D
:102DF00018470000417881700178417002490969E3
:102E00000907090F0170704700080048034A017A5A
:102E10005163034900794863704700000044014052
:102E20000048014070B50024045F0D463020C043C7
:102E30007D216043C900FDF79DF9643000D5404213
:102E40002870FF20C000844201DC3E2000E03C20CE
:102E5000687070BD0000400000000000000000012C
:102E60000203040607080900882E0008000000205D
:102E70001C00000040220008A42E00081C000020B6
:102E80001C050000502200080000000000000000A7
:102E9000000000000100000004000000000000002D
:042EA00000127A00A2
:04000005080000BD32
:00000001FF
